:1000000008308A00872A0000FF00030E8301A10048
:100010000A08A0008A010408A2007708A300780853
:10002000A4007908A5007A08A6007B08A70083131E
:1000300083128C308400801E1F288C1A3F288C303D
:100040008400001C25280C1842280B1E29288B1818
:100050003C28220884002308F7002408F80025081B
:10006000F9002608FA002708FB0020088A00210E64
:100070008300FF0E7F0E09008A110A1245288A119B
:100080000A122C2F8A110A12C02BAF0A0319B00AC8
:100090008B108A110A1229288E30F70083165E0809
:1000A000F8005D08F900FA01F808031D61287908D5
:1000B000F800F9010830F702F808031D6128F7017C
:1000C00069280310F81B6828F90DF80DF70361285B
:1000D000F81383120034831659080319DC28E10051
:1000E0005D080319DC28E10703187D287F30E10251
:1000F000031CDC280319DC2881288130E107031860
:10010000DC286108F700F801F901FA015A08E50056
:10011000E5175B08E4005C08E3001830E100E20149
:10012000631CAA286008FA07031C9C28F90A031D0F
:100130009C28F80A0319E2175F08F907031CA32893
:10014000F80A0319E2175E08DB00DB175B08F80703
:100150000318E217E20DF80CF90CFA0CE50CE40CAC
:10016000E30C0310E10B8F280130F7070318DC289C
:10017000F81BC128E50DFA0DF90DF80DF703031969
:10018000DC28E51FD228FA0A031DD228F90A031D2C
:10019000D228F80A031DD228F80CF90CFA0CF70A39
:1001A0000319DC285A08E2005E08E206E21FDA289A
:1001B000F817E028F813E028F701F801F901FA012F
:1001C000831200348030831CE8288316E6068312ED
:1001D0000317920193018316031362088312031716
:1001E0009100831603136608831203179106831682
:1001F000031361080319282A831203179000F700DC
:1002000083160313650803193D2A8312031790020E
:100210000319B329031C5929831603136608831293
:1002200003179600961783160313670883120317A4
:100230009500831603136808831203179400930133
:100240000310960C950C940C930C900B1F29911F86
:100250002C2912145B2A121010101216E43084009C
:100260008313702A1212911B3F29101C4A29960CE5
:10027000950C940C930CF70A0319562A4A29961BDD
:100280004D290310930D940D950D960DF703031949
:10029000562A3F291217E329121383160313620803
:1002A000831203179100911F572996174F2A96130F
:1002B0004F2A831603136508831203179000F70073
:1002C0008316031361088312031790028316031326
:1002D00062088312031796009617831603136308A8
:1002E0008312031795008316031364088312031700
:1002F000940093010310960C950C940C930C900BA6
:100300007929911F862992145B2A92101010921657
:10031000E83084008313702A9212911B9929101CD3
:10032000A429960C950C940C930CF70A0319562AE1
:10033000A429961BA7290310930D940D950D960DD6
:10034000F7030319562A99299217E3299213831662
:1003500003136608831203179100911FB1299617A2
:100360004F2A96134F2A8316031366088312031726
:1003700096009617831603136708831203179500D8
:10038000831603136808831203179400911FCC2966
:10039000961312155B2A121193011010E430840099
:1003A0008313702A911BF9298316031362088312A1
:1003B00003179100101CE329960C950C940C930CD8
:1003C000F70A0319562A931FF429940A031DF429E6
:1003D000950A031DF429960A031DF429960C950C21
:1003E000940CF70A0319562A121B4C29921BA629B2
:1003F000202A80309606961F052A5B2A831603134F
:100400006608831203179100162A831603136208E5
:100410008312031791009608031D162A9508031DE1
:10042000162A9408031D162AF7014F2A961B202A24
:100430000310930D940D950D960DF70B162A562A61
:10044000911F242A96174F2A96134F2A83160313B7
:100450006508F700660883120317960083160313D6
:100460006708831203179500831603136808831225
:10047000031794004F2A831603136108F7006208DC
:10048000831203179600831603136308831203175E
:10049000950083160313640883120317940016084B
:1004A000F8001508F9001408FA008E2AF701F8017F
:1004B000F901FA018E2A9301940995099609930985
:1004C000930A031D692A940A031D692A950A0319D0
:1004D000960A12182B29921885291219CB29FE2960
:1004E00000089407031C7A2A950A031D7A2A960AA3
:1004F00003191014840300089507031C822A960A26
:100500000319101484030008801F803A960703180B
:100510001014121A3229921A8C29D229031300348A
:1005200083165A080319562BE6005E080319562B4A
:10053000E602031CA02A7F30E6070318562BA62AE2
:100540008130E602031C562B0319562B6608F70070
:10055000F801F901FA01E5015B08E400E4175C0821
:10056000E3005D08E2001930E6006108E2020318CA
:10057000C92A0130E3020318C92AE4020318C92A70
:10058000E5020318C92AE50AE40AE30A6108E2075A
:10059000FB2A6008E3020318E42A0130E40203188E
:1005A000E42AE5020318E42AE50AE40A6008E307FE
:1005B0006108E207031CFB2AE30A031DFB2AE40A85
:1005C000031DFB2AE50AFB2A5F088038E4020318B2
:1005D000FA2A0130E5020318FA2AE50A5F08803892
:1005E000E4076008E307031CD82AE40A031DD82A9D
:1005F000E50AD82A7A14E60BFE2A092B0310E20D2D
:10060000E30DE40DE50D0310FA0DF90DF80DE70DFE
:10061000B52A671C112B0310F80CF90CFA0CE70C27
:10062000142BF7030319562BE71B3D2B0310E20D88
:10063000E30DE40DE50D6108E2020318292B0130FA
:10064000E3020318292BE4020318292BE502031CFB
:100650004C2B6008E3020318342B0130E40203182A
:10066000342BE502031C4C2B5F088038E40203188E
:100670003D2B0130E502031C4C2BFA0A031D4C2BC9
:10068000F90A031D4C2BF80A031D4C2BF70A03191A
:10069000562BF80CF90CFA0C5B08E6005F08E6062E
:1006A000E61F542BF8175A2BF8135A2BF701F801B1
:1006B000F901FA018312003483164D08D400510861
:1006C000D406D41F682B03110310CD1B03149B2BDE
:1006D0004D08D4005008D5004C08D5020319762BDC
:1006E000D41F9B2B0308013A83009B2B5108D50094
:1006F0004D08D5020319822BD41F9B2B0308013A06
:1007000083009B2B5208D5004E08D50203198E2B6F
:10071000D41F9B2B0308013A83009B2B5308D50061
:100720004F08D50203199A2BD41F9B2B0308013ABB
:1007300083009B2B0310831200348E30F700831646
:100740004C08F7024D08F9004E08F800F917F708B1
:100750000319B52B0310F908031DB12BF808031971
:10076000B52BF90CF80CF70BAA2BCD1FBC2BF809F5
:10077000F909F80A0319F90A83128A110A12DE2DFF
:1007800030088316DE0083122F088316DD008312E3
:100790004C2077088316CC007808CD007908CE006D
:1007A0007A08CF00DC004E08DB004D08DA004C0868
:1007B000D900E001DF014030DE008130DD0083122E
:1007C0006B207A08DA007908D9007808D800770811
:1007D000D700831456088316E40083125508831645
:1007E000E300831254088316E20083125308831631
:1007F000E10083125A088316E80083125908831611
:10080000E700831258088316E60083125708831600
:10081000E5008312E2207A08DE007908DD0078081E
:10082000DC007708DB00831476088316E400750883
:10083000E3007408E2007308E1002B08E8002A08CE
:10084000E7002908E6002808E5008312E2207A087C
:100850008316A3007908A2007808A1007708A000F9
:1008600083124A088316DC00831249088316DB00D2
:10087000831248088316DA00831247088316D900CA
:1008800083125E088316E00083125D088316DF0082
:1008900083125C088316DE0083125B088316DD007A
:1008A00083126B20831066088316E40083126508A8
:1008B0008316E300831264088316E2008312630840
:1008C0008316E1007A08E8007908E7007808E60076
:1008D0007708E5008312E22077088316CC007808B9
:1008E000CD007908CE007A08CF008312460883161F
:1008F000DC00831245088316DB008312440883164C
:10090000DA00831243088316D90083126208831623
:10091000E000831261088316DF00831260088316EB
:10092000DE0083125F088316DD0083126B208310C4
:1009300083164F08E4004E08E3004D08E2004C081F
:10094000E1007A08E8007908E7007808E60077080F
:10095000E5008312E22077088316D0007808D100E2
:100960007908D2007A08D30083124E088316DC007F
:1009700083124D088316DB0083124C088316DA00BD
:1009800083124B088316D9002308E0002208DF00F9
:100990002108DE002008DD0083126B2083108316FF
:1009A0005308E4005208E3005108E2005008E10057
:1009B0007A08E8007908E7007808E6007708E5009B
:1009C0008312E22077088316D4007808D5007908CE
:1009D000D6007A08D700831252088316DC008312EF
:1009E00051088316DB00831250088316DA00831245
:1009F0004F088316D9002708E0002608DF002508E5
:100A0000DE002408DD0083126B2083108316570854
:100A1000E4005608E3005508E2005408E1007A08B3
:100A2000E8007908E7007808E6007708E500831217
:100A3000E2207A08E6007908E5007808E400770803
:100A4000E3005E08E2005D08E1005C08E0005B088E
:100A5000DF0083162308A7002208A6002108A500AE
:100A60002008A4002B08F6002A08F5002908F40045
:100A70002808F300DD01DC017030DB008530DA008E
:100A800083126E088316E10083126D088316E0005E
:100A900083126C088316DF0083126B088316DE0056
:100AA000831290227A088316AF007908AE00780886
:100AB000AD007708AC002F08CF002E08CE002D081F
:100AC000CD002C08CC00831266088316D300831255
:100AD00065088316D200831264088316D10083123E
:100AE00063088316D00083125C23031C872D8316B2
:100AF0002F088312E60083162E088312E500831662
:100B00002D088312E40083162C088312E300660884
:100B10008316CF00831265088316CE008312640803
:100B20008316CD00831263088316CC00D301D20153
:100B3000D1017F30D00083125C23031CA42DE60179
:100B4000E501E4017F30E30066088316DC008312D0
:100B500065088316DB00831264088316DA008312AB
:100B600063088316D90083126E088316E00083128F
:100B70006D088316DF0083126C088316DE00831273
:100B80006B088316DD0083126B207A08EA0079086F
:100B9000E9007808E8007708E7006A088316CF00C4
:100BA000831269088316CE00831268088316CD006D
:100BB000831267088316CC0083129D2B7808B70038
:100BC000370888008809B001AF010B308F00DC3096
:100BD0008E000C108A110A1229287F308316CE004D
:100BE000CF01D001D101D201D301D401D501D60169
:100BF000D8015808D80A4C07840083134D1883176E
:100C00000008D70057082F3C03180A2E5708393C14
:100C10000318162E57082B3C0319162E57082D3C87
:100C20000319162E57082E3C031D072F57082D3C7D
:100C3000031D252E0130D6005808D80A4C07840021
:100C400083134D1883170008D70057082B3C031D4A
:100C5000322E5808D80A4C07840083134D18831786
:100C60000008D70057082F3C0318992E5708393C25
:100C7000031C992EDC01DB012030DA008230D90020
:100C80005508E0005408DF005308DE005208DD007C
:100C900083126B2077088316D9007808DA00790868
:100CA000DB007A08DC00DE015708DD0083124C20EF
:100CB000831083165C08E4005B08E3005A08E20036
:100CC0005908E1007A08E8007908E7007808E600AA
:100CD0007708E5008312E22077088316DD007808A4
:100CE000DE007908DF007A08E00083146008E40081
:100CF0005F08E3005E08E2005D08E100E801E7014B
:100D00004030E6008430E5008312E2207A08831642
:100D1000D5007908D4007808D3007708D2005808A5
:100D2000D80A4C07840083134D1883170008D70096
:100D3000322E57082E3C031D072F5808D80A4C079F
:100D4000840083134D1883170008D70057082F3CE1
:100D50000318072F5708393C031C072F5108DC00E4
:100D60005008DB004F08DA004E08D900E001DF012F
:100D70002030DE008230DD0083126B207A0883167B
:100D8000D1007908D0007808CF007708CE00303045
:100D90005702DE01DD0083124C207A088316DD0045
:100DA0007908DC007808DB007708DA005108E100F8
:100DB0005008E0004F08DF004E08DE00831290224A
:100DC000831083165508E4005408E3005308E2003A
:100DD0005208E1007A08E8007908E7007808E600A0
:100DE0007708E5008312E2207A088316D500790897
:100DF000D4007808D3007708D2005808D80A4C07E6
:100E0000840083134D1883170008D700A62E560BB5
:100E1000222FDC01DB018030DA007F30D900550859
:100E2000E0005408DF005308DE005208DD008312A2
:100E30006B207A088316D5007908D4007808D3008F
:100E40007708D2005208F7005308F8005408F90058
:100E50005508FA008312003483168C12383083123E
:100E6000310784008313321883178C1E352F1A081C
:100E7000800038303107840083133218831700084C
:100E8000233C031DD12F013031028316CC00831285
:100E900032088316CD000030031C0130CD023830FB
:100EA0004C07840083134D18831700088312C20077
:100EB000B201B1014208703A0319712F193A0319AE
:100EC000802F183A03198F2F1B3A03199E2F0E3AC1
:100ED0000319AD2F123A0319BC2F503A0319CB2F27
:100EE000D02F8316CD013830CC008312ED257A083F
:100EF000CA007908C9007808C8007708C700D02F51
:100F00008316CD013830CC008312ED257A08C60057
:100F10007908C5007808C4007708C300D02F83166D
:100F2000CD013830CC008312ED257A08CE00790847
:100F3000CD007808CC007708CB00D02F8316CD01E8
:100F40003830CC008312ED257A08D2007908D10020
:100F50007808D0007708CF00D02F8316CD01383025
:100F6000CC008312ED257A08EE007908ED007808B0
:100F7000EC007708EB00D02F8316CD013830CC0081
:100F80008312ED257A08D6007908D5007808D400B8
:100F90007708D300D02F26300C1ECC2F9900D02FED
:100FA000D42FB10A0319B20A83168C1683128C123D
:100FB0008A110A122928B630840083130008031905
:100FC000EE2F0630F800F701F70BE42FF80BE32FB4
:0E0FD0007B30F700F70BEA2F800BE12F003487
:10100000F801F901F701FA0183163908031D0B28CD
:101010003808031925281030BA000310B60DB70D93
:10102000F70DFA0D39087A02031D182838087702DF
:10103000031C21283808F702031CFA033908FA02B6
:101040000314F80DF90DBA0B0D2883128A150A1234
:101050006A288316B101B0018312B6016430B5006D
:10106000B401B30134083602031C6028031D3C2878
:1010700035083302031860281F151F193D281E0864
:10108000FA0083161E08FC007A08FD007D08013C6A
:10109000031858287C08B0077D0803187D0FB10796
:1010A0000230B6008A118312DB278A155C2883166A
:1010B0008312B50A0319B60AB30A0319B40A32280F
:1010C00083163108B7003008B600B9016430B800A3
:1010D0008312002879088316B7007808B60000301C
:1010E0003602F7003708FA000230031C0330FA0218
:1010F00077088312A8018B1BA8178B138316DD00BA
:101100007A08DE008A1183124C208A15A81B8B17DF
:101110007A088316AB007908AA007808A900770836
:10112000A8008312A8018B1BA8178B1383162B080A
:10113000DC002A08DB002908DA002808D90068301A
:10114000E000E830DF001F30DE007730DD008A117C
:1011500083126B208A15A81B8B177A088316B5009B
:101160007908B4007808B3007708B2008312A801A8
:101170008B1BA8178B1383163508DD003408DC00A1
:101180003308DB003208DA00A430E1007030E00000
:101190003D30DF007C30DE008A11831290228A15F8
:1011A000A81B8B177A08F2007908F1007808F00084
:1011B0007708EF00003483163F08B63CBF00FA0101
:1011C0004008C300C0170310C00CC10CC20CFA0CBD
:1011D000F90CF80CF70CBF0BE328C31FFA28F7092A
:1011E000F809F909FA09F70A0319F80A0319F90ABB
:1011F0000319FA0A83128A150A127829F701F801ED
:10120000F901FA018316C701C801C901CA014608DC
:1012100045044404430403193D292030CB00031046
:10122000BF0DC00DC10DC20DC70DC80DC90DCA0D32
:1012300046084A02031D262945084902031D26299E
:1012400044084802031D262943084702031C372986
:101250004308C7024408031C440FC8024508031C86
:10126000450FC9024608031C460FCA020314F70DB6
:10127000F80DF90DFA0DCB0B0F29C730840083133D
:101280008312003404088316B7003608B900031926
:101290006E298312A8018B1BA8178B1383163508A0
:1012A000DC003408DB003308DA003208D900E00142
:1012B000DF012030DE008230DD008A1183126B20D6
:1012C0008A15A81B8B177A088316B5007908B40015
:1012D0007808B3007708B200B90B49293508C20075
:1012E0003408C1003308C0003208BF008312DB2875
:1012F0007A088316B5007908B4007808B300770837
:10130000B200B51F9029B703B716B209B309B409E3
:10131000B509B20A0319B30A0319B40A0319B50AC5
:101320003B30BE009A30BD00CA30BC00BB010A3061
:10133000B90036080319B70A3508C2003408C100DD
:101340003308C0003208BF003E08C6003D08C50093
:101350003C08C4003B08C3008312FE20000883162B
:10136000B200840A0008B300840A0008B400840AAA
:101370000008B500FD308407F708031DD229360A9E
:1013800039020319D22937080319D4290F39390230
:101390000319CC290318102AB71B102A371BD4298C
:1013A0002030092A2030B705B71EE529B7123608C4
:1013B000031DB7037708B7002D3083120C1EDE29FA
:1013C000990083163708F700B70136083902031D64
:1013D000F6297708B7002E3083120C1EED299900EC
:1013E00083163708F7002030B70500303030B71EBD
:1013F000092AB7123608031DB7037708B7002D3046
:1014000083120C1E012A990083163708F700B701D2
:101410003030F707770883120C1E0C2A99008316C8
:101420003E08C2003D08C1003C08C0003B08BF00A8
:10143000C601C501C4010A30C3008312FE207A0828
:101440008316BE007908BD007808BC007708BB0091
:10145000B90B9C298312003483163508F801340235
:101460000318352A3408F700412AF7010830B6007E
:10147000B40DF70D350877020318F700F80DB60B19
:10148000382A83120034780883163208B400643096
:10149000B50083122C2277088316B200780830300A
:1014A000031D592AB31C632AB319632A331A203047
:1014B0005C2AB31133123314F807780883120C1E18
:1014C0005F2A990083163208B4000A30B5008312EF
:1014D0002C2277088316B20078083030031D762A54
:1014E000B3197D2A331C7D2A331A2030F807780877
:1014F00083120C1E792A990083163030B207320805
:1015000083120C1E812A99008A150A124D2B840120
:1015100083131F308305813083169900A63098000D
:1015200090308312980083161F149F141F159F116B
:1015300007309C008312A901AA01FF30FE00831628
:101540008C160113B5308312900083160C140B30E7
:1015500083128F00DC308E000B16C0308B04B0017C
:10156000AF01DA01D901D801D701D601D501D401E3
:10157000D301CA01C901C801C701C601C501C4011F
:10158000C301CE01CD01CC01CB01D201D101D001EB
:10159000CF01EE01ED01EC01EB01FF308316850078
:1015A0008600C0308700FE00003088003230B60070
:1015B0008A118312DB278A1583161F1383121F17C4
:1015C0009F1783169F1783121F1483161F109F14D3
:1015D0001F159F150030F80083121F08C7397804C3
:1015E0009F00073083169C0005081030F700F70BAA
:1015F000F72A00001C0883120D1383169D01323058
:10160000B6008A118312DB278A152920323083160F
:10161000B6008A118312DB278A15292032308316FF
:10162000B6008A118312DB278A1521300C1E162B77
:101630009900033084005A088316B50083125908B4
:101640008316B400831258088316B3008312570818
:101650008316B200B601831242217C300C1E2E2B61
:1016600099008930840072088316B5007108B400AF
:101670007008B30083126F088316B2000330B600FF
:10168000831242217C300C1E432B990037088316AD
:10169000B2001B30B3008312432A7C300C1E4E2B49
:1016A0009900033084005E088316B50083125D083C
:1016B0008316B40083125C088316B30083125B08A0
:1016C0008316B200B601831242217C300C1E662BB9
:1016D00099000330840056088316B500831255081C
:1016E0008316B400831254088316B3008312530880
:1016F0008316B200B6018312422140300C1E7E2BAD
:061700009900052B6300B7
:02400E003A3F37
:00000001FF
;PIC16F877A
