:1000000008308A00972A0000FF00030E8301A10038
:100010000A08A0008A010408A2007708A300780853
:10002000A4007908A5007A08A6007B08A70083131E
:1000300083128C308400801E1F288C1A46288C3036
:100040008400001C25280C1849280B1E29288B1811
:1000500043288B1D2D280B184028220884002308D4
:10006000F7002408F8002508F9002608FA002708F8
:10007000FB0020088A00210E8300FF0E7F0E09007E
:100080008A110A12E22F8A110A124C288A110A12C6
:10009000332F8A110A12C72BAF0A0319B00A8B102B
:1000A0008A110A122D288E30F70083166208F80094
:1000B0006108F900FA01F808031D68287908F800BA
:1000C000F9010830F702F808031D6828F7017028C5
:1000D0000310F81B6F28F90DF80DF7036828F813C3
:1000E0008312003483165D080319E328E5006108D4
:1000F0000319E328E507031884287F30E502031C71
:10010000E3280319E32888288130E5070318E3284A
:100110006508F700F801F901FA015E08E900E9173E
:100120005F08E8006008E7001830E500E601671C9A
:10013000B1286408FA07031CA328F90A031DA328A1
:10014000F80A0319E6176308F907031CAA28F80A36
:100150000319E6176208DF00DF175F08F8070318C6
:10016000E617E60DF80CF90CFA0CE90CE80CE70CB4
:100170000310E50B96280130F7070318E328F81B56
:10018000C828E90DFA0DF90DF80DF7030319E32856
:10019000E91FD928FA0A031DD928F90A031DD9280D
:1001A000F80A031DD928F80CF90CFA0CF70A031900
:1001B000E3285E08E6006208E606E61FE128F81775
:1001C000E728F813E728F701F801F901FA0183128B
:1001D00000348030831CEF288316EA06831203174D
:1001E000920193018316031366088312031791008B
:1001F000831603136A0883120317910683160313E9
:10020000650803192F2A831203179000F70083163D
:10021000031369080319442A831203179002031970
:10022000BA29031C6029831603136A088312031773
:1002300096009617831603136B0883120317950015
:10024000831603136C0883120317940093010310A1
:10025000960C950C940C930C900B2629911F332926
:100260001214622A121010101216E8308400831340
:10027000772A1212911B4629101C5129960C950CB5
:10028000940C930CF70A03195D2A5129961B5429E3
:100290000310930D940D950D960DF70303195D2A28
:1002A00046291217EA2912138316031366088312CC
:1002B00003179100911F5E299617562A9613562A06
:1002C000831603136908831203179000F70083163F
:1002D000031365088312031790028316031366083D
:1002E0008312031796009617831603136708831269
:1002F00003179500831603136808831203179400ED
:1003000093010310960C950C940C930C900B802980
:10031000911F8D299214622A921010109216EC30BF
:1003200084008313772A9212911BA029101CAB29F9
:10033000960C950C940C930CF70A03195D2AAB29C3
:10034000961BAE290310930D940D950D960DF70392
:1003500003195D2AA0299217EA2992138316031321
:100360006A08831203179100911FB8299617562A1D
:100370009613562A831603136A08831203179600EE
:100380009617831603136B088312031795008316C1
:1003900003136C08831203179400911FD32996133B
:1003A0001215622A121193011010E8308400831391
:1003B000772A911B002A83160313660883120317FA
:1003C0009100101CEA29960C950C940C930CF70ADA
:1003D00003195D2A931FFB29940A031DFB29950A23
:1003E000031DFB29960A031DFB29960C950C940C02
:1003F000F70A03195D2A121B5329921BAD29272ADC
:1004000080309606961F0C2A622A831603136A0808
:100410008312031791001D2A8316031366088312A3
:10042000031791009608031D1D2A9508031D1D2A18
:100430009408031D1D2AF701562A961B272A03102C
:10044000930D940D950D960DF70B1D2A5D2A911FA6
:100450002B2A9617562A9613562A831603136908D1
:10046000F7006A08831203179600831603136B08BC
:10047000831203179500831603136C088312031766
:100480009400562A831603136508F7006608831242
:10049000031796008316031367088312031795004A
:1004A0008316031368088312031794001608F800D4
:1004B0001508F9001408FA00952AF701F801F90166
:1004C000FA01952A93019409950996099309930ACB
:1004D000031D702A940A031D702A950A0319960AAF
:1004E0001218322992188C291219D229052A0008CB
:1004F0009407031C812A950A031D812A960A031971
:100500001014840300089507031C892A960A03190E
:10051000101484030008801F803A960703181014F3
:10052000121A3929921A9329D929031300348316F0
:100530005E0803195D2BEA00620803195D2BEA02CD
:10054000031CA72A7F30EA0703185D2BAD2A8130F0
:10055000EA02031C5D2B03195D2B6A08F700F80102
:10056000F901FA01E9015F08E800E8176008E7000F
:100570006108E6001930EA006508E6020318D02A8F
:100580000130E7020318D02AE8020318D02AE90252
:100590000318D02AE90AE80AE70A6508E607022BE9
:1005A0006408E7020318EB2A0130E8020318EB2A7B
:1005B000E9020318EB2AE90AE80A6408E707650874
:1005C000E607031C022BE70A031D022BE80A031DA2
:1005D000022BE90A022B63088038E8020318012B7A
:1005E0000130E9020318012BE90A63088038E807A3
:1005F0006408E707031CDF2AE80A031DDF2AE90A6B
:10060000DF2A7A14EA0B052B102B0310E60DE70DF9
:10061000E80DE90D0310FA0DF90DF80DEB0DBC2AEC
:100620006B1C182B0310F80CF90CFA0CEB0C1B2BA1
:10063000F70303195D2BEB1B442B0310E60DE70DAD
:10064000E80DE90D6508E6020318302B0130E702DA
:100650000318302BE8020318302BE902031C532B3C
:100660006408E70203183B2B0130E80203183B2B18
:10067000E902031C532B63088038E8020318442B5B
:100680000130E902031C532BFA0A031D532BF90A0C
:10069000031D532BF80A031D532BF70A03195D2B77
:1006A000F80CF90CFA0C5F08EA006308EA06EA1F86
:1006B0005B2BF817612BF813612BF701F801F90197
:1006C000FA018312003483165108D8005508D80661
:1006D000D81F6F2B03110310D11B0314A22B510839
:1006E000D8005408D9005008D90203197D2BD81F0F
:1006F000A22B0308013A8300A22B5508D900510808
:10070000D9020319892BD81FA22B0308013A8300B1
:10071000A22B5608D9005208D9020319952BD81FCD
:10072000A22B0308013A8300A22B5708D9005308D3
:10073000D9020319A12BD81FA22B0308013A830069
:10074000A22B0310831200348E30F700831650085A
:10075000F7025108F9005208F800F917F7080319D1
:10076000BC2B0310F908031DB82BF8080319BC2B88
:10077000F90CF80CF70BB12BD11FC32BF809F909B1
:10078000F80A0319F90A83128A110A12E52D3008B2
:100790008316E20083122F088316E1008312532090
:1007A00077088316D0007808D1007908D2007A083B
:1007B000D300E0005208DF005108DE005008DD00E1
:1007C000E401E3014030E2008130E1008312722055
:1007D0007A08DA007908D9007808D8007708D700B5
:1007E000831456088316E800831255088316E70021
:1007F000831254088316E600831253088316E5001B
:1008000083125A088316EC00831259088316EB00F2
:10081000831258088316EA00831257088316E900EA
:100820008312E9207A08DE007908DD007808DC0010
:100830007708DB00831476088316E8007508E70064
:100840007408E6007308E5002B08EC002A08EB00AA
:100850002908EA002808E9008312E9207A088316AB
:10086000A3007908A2007808A1007708A0008312ED
:100870004A088316E000831249088316DF008312BA
:1008800048088316DE00831247088316DD008312B2
:100890005E088316E40083125D088316E30083126A
:1008A0005C088316E20083125B088316E100831262
:1008B0007220831066088316E80083126508831689
:1008C000E700831264088316E60083126308831628
:1008D000E5007A08EC007908EB007808EA00770870
:1008E000E9008312E92077088316D0007808D10048
:1008F0007908D2007A08D300831246088316E000F4
:10090000831245088316DF00831244088316DE0035
:10091000831243088316DD00831262088316E40005
:10092000831261088316E300831260088316E200D5
:1009300083125F088316E1008312722083108316EE
:100940005308E8005208E7005108E6005008E500A7
:100950007A08EC007908EB007808EA007708E900EB
:100960008312E92077088316D4007808D500790827
:10097000D6007A08D70083124E088316E00083124F
:100980004D088316DF0083124C088316DE008312A5
:100990004B088316DD002308E4002208E300210849
:1009A000E2002008E10083127220831083165708AA
:1009B000E8005608E7005508E6005408E5007A0804
:1009C000EC007908EB007808EA007708E900831268
:1009D000E92077088316D8007808D9007908DA006A
:1009E0007A08DB00831252088316E0008312510854
:1009F0008316DF00831250088316DE0083124F082F
:100A00008316DD002708E4002608E3002508E2003D
:100A10002408E10083127220831083165B08E8002B
:100A20005A08E7005908E6005808E5007A08EC0083
:100A30007908EB007808EA007708E9008312E920DA
:100A40007A08E6007908E5007808E4007708E30012
:100A50005E08E2005D08E1005C08E0005B08DF0082
:100A600083162308A7002208A6002108A500200855
:100A7000A4002B08F6002A08F5002908F40028082D
:100A8000F300E101E0017030DF008530DE00831209
:100A90006E088316E50083126D088316E400831246
:100AA0006C088316E30083126B088316E20083123E
:100AB00097227A088316AF007908AE007808AD0057
:100AC0007708AC002F08D3002E08D2002D08D100E3
:100AD0002C08D000831266088316D700831265089D
:100AE0008316D600831264088316D5008312630828
:100AF0008316D40083126323031C8E2D83162F08C4
:100B00008312E60083162E088312E50083162D0853
:100B10008312E40083162C088312E3006608831610
:100B2000D300831265088316D200831264088316EB
:100B3000D100831263088316D000D701D601D501F6
:100B40007F30D40083126323031CAB2DE601E50143
:100B5000E4017F30E30066088316E0008312650835
:100B60008316DF00831264088316DE008312630895
:100B70008316DD0083126E088316E40083126D086D
:100B80008316E30083126C088316E20083126B085D
:100B90008316E100831272207A08EA007908E900DE
:100BA0007808E8007708E7006A088316D300831204
:100BB00069088316D200831268088316D100831255
:100BC00067088316D0008312A42B7808B700370873
:100BD00088008809B001AF010B308F00DC308E0037
:100BE0000C108A110A122D287F308316D200D301EF
:100BF000D401D501D601D701D801D901DA01DC0130
:100C00005C08DC0A5007840083135118831700081E
:100C1000DB005B082F3C0318112E5B08393C0318DE
:100C20001D2E5B082B3C03191D2E5B082D3C031960
:100C30001D2E5B082E3C031D0E2F5B082D3C031D53
:100C40002C2E0130DA005C08DC0A50078400831384
:100C5000511883170008DB005B082B3C031D392E5D
:100C60005C08DC0A500784008313511883170008BE
:100C7000DB005B082F3C0318A02E5B08393C031CEB
:100C8000A02EE001DF012030DE008230DD005908B7
:100C9000E4005808E3005708E2005608E100831218
:100CA000722077088316DD007808DE007908DF00FF
:100CB0007A08E000E2015B08E10083125320831010
:100CC00083166008E8005F08E7005E08E6005D083C
:100CD000E5007A08EC007908EB007808EA0077086C
:100CE000E9008312E92077088316E1007808E20022
:100CF0007908E3007A08E40083146408E8006308D4
:100D0000E7006208E6006108E500EC01EB01403015
:100D1000EA008430E9008312E9207A088316D900BA
:100D20007908D8007808D7007708D6005C08DC0A74
:100D3000500784008313511883170008DB00392EF5
:100D40005B082E3C031D0E2F5C08DC0A5007840054
:100D50008313511883170008DB005B082F3C03182E
:100D60000E2F5B08393C031C0E2F5508E000540879
:100D7000DF005308DE005208DD00E401E30120300B
:100D8000E2008230E100831272207A088316D500D7
:100D90007908D4007808D3007708D20030305B029D
:100DA000E201E100831253207A088316E1007908FA
:100DB000E0007808DF007708DE005508E5005408F9
:100DC000E4005308E3005208E200831297228310E4
:100DD00083165908E8005808E7005708E600560847
:100DE000E5007A08EC007908EB007808EA0077085B
:100DF000E9008312E9207A088316D9007908D8001F
:100E00007808D7007708D6005C08DC0A5007840011
:100E10008313511883170008DB00AD2E5A0B292FBE
:100E2000E001DF018030DE007F30DD005908E400A2
:100E30005808E3005708E2005608E10083127220C8
:100E40007A088316D9007908D8007808D70077087F
:100E5000D6005608F7005708F8005808F900590856
:100E6000FA008312003483168C1238308312310753
:100E700084008313321883178C1E3C2F1A088000BD
:100E80003830310784008313321883170008233C5D
:100E9000031DD82F013031028316D000831232088F
:100EA0008316D1000030031C0130D10238305007C6
:100EB000840083135118831700088312C200B20103
:100EC000B1014208703A0319782F193A0319872F94
:100ED000183A0319962F1B3A0319A52F0E3A031936
:100EE000B42F123A0319C32F503A0319D22FD72F18
:100EF0008316D1013830D0008312F4257A08CA0055
:100F00007908C9007808C8007708C700D72F83166A
:100F1000D1013830D0008312F4257A08C600790850
:100F2000C5007808C4007708C300D72F8316D10105
:100F30003830D0008312F4257A08CE007908CD002D
:100F40007808CC007708CB00D72F8316D101383032
:100F5000D0008312F4257A08D2007908D1007808ED
:100F6000D0007708CF00D72F8316D1013830D000BA
:100F70008312F4257A08EE007908ED007808EC0079
:100F80007708EB00D72F8316D1013830D0008312B9
:100F9000F4257A08D6007908D5007808D4007708B7
:100FA000D300D72F26300C1ED32F9900D72FDB2F3D
:100FB000B10A0319B20A83168C1683128C128A1195
:100FC0000A122D28061EE82F23300C1EE52F99004B
:100FD000861EEE2F24300C1EEB2F9900061FF42FD7
:100FE00025300C1EF12F99000B108A110A122D28A2
:10100000B630840083130008031913280630F80053
:10101000F701F70B0928F80B08287B30F700F70BCE
:101020000F28800B06280034F801F901F701FA01B6
:1010300083163908031D1F28380803193928103072
:10104000BA000310B60DB70DF70DFA0D39087A0284
:10105000031D2C2838087702031C35283808F702AE
:10106000031CFA033908FA020314F80DF90DBA0B40
:10107000212883128A150A127C288316B101B00137
:101080008312B6016430B500B401B30134083602EE
:10109000031C7228031D50283508330203187228D8
:1010A0001F151F1951281E08FA0083161E08FC0080
:1010B0007A08FD007D08013C03186A287C08B00707
:1010C0007D0803187D0FB1070230B600831200209F
:1010D0006E2883168312B50A0319B60AB30A0319D8
:1010E000B40A462883163108B7003008B600B901A3
:1010F0006430B8008312142879088316B700780882
:10110000B60000303602F7003708FA000230031C40
:101110000330FA0277088312A8018B1BA8178B13E0
:101120008316E1007A08E2008A11831253208A159F
:10113000A81B8B177A088316AB007908AA007808D9
:10114000A9007708A8008312A8018B1BA8178B138E
:1011500083162B08E0002A08DF002908DE00280893
:10116000DD006830E400E830E3001F30E200773053
:10117000E1008A11831272208A15A81B8B177A0846
:101180008316B5007908B4007808B3007708B20078
:101190008312A8018B1BA8178B1383163508E10057
:1011A0003408E0003308DF003208DE00A430E50038
:1011B0007030E4003D30E3007C30E2008A1183129D
:1011C00097228A15A81B8B177A08F2007908F1007C
:1011D0007808F0007708EF00003483164308B63C27
:1011E000C300FA014408C700C4170310C40CC50C9F
:1011F000C60CFA0CF90CF80CF70CC30BF528C71F3A
:101200000C29F709F809F909FA09F70A0319F80A84
:101210000319F90A0319FA0A83128A150A128A298C
:10122000F701F801F901FA018316CB01CC01CD01D8
:10123000CE014A0849044804470403194F292030C5
:10124000CF000310C30DC40DC50DC60DCB0DCC0DC5
:10125000CD0DCE0D4A084E02031D382949084D0216
:10126000031D382948084C02031D382947084B0242
:10127000031C49294708CB024808031C480FCC022D
:101280004908031C490FCD024A08031C4A0FCE022D
:101290000314F70DF80DF90DFA0DCF0B2129CB3002
:1012A000840083138312003404088316BB003A08B9
:1012B000BD00031980298312A8018B1BA8178B136B
:1012C00083163908E0003808DF003708DE003608EA
:1012D000DD00E401E3012030E2008230E1008A1108
:1012E000831272208A15A81B8B177A088316B900FF
:1012F0007908B8007808B7007708B600BD0B5B29FD
:101300003908C6003808C5003708C4003608C300CD
:101310008312ED287A088316B9007908B800780896
:10132000B7007708B600B91FA229BB03BB16B609E0
:10133000B709B809B909B60A0319B70A0319B80AEF
:101340000319B90A3B30C2009A30C100CA30C0004C
:10135000BF010A30BD003A080319BB0A3908C600AC
:101360003808C5003708C4003608C3004208CA0060
:101370004108C9004008C8003F08C7008312102177
:1013800000088316B600840A0008B700840A000823
:10139000B800840A0008B900FD308407F708031D6F
:1013A000E4293A0A3D020319E4293B080319E62916
:1013B0000F393D020319DE290318222ABB1B222AFA
:1013C0003B1BE62920301B2A2030BB05BB1EF7291A
:1013D000BB123A08031DBB037708BB002D308312F4
:1013E0000C1EF029990083163B08F700BB013A0850
:1013F0003D02031D082A7708BB002E3083120C1E05
:10140000FF29990083163B08F7002030BB05003008
:101410003030BB1E1B2ABB123A08031DBB037708E2
:10142000BB002D3083120C1E132A990083163B0833
:10143000F700BB013030F707770883120C1E1E2A15
:10144000990083164208C6004108C5004008C40040
:101450003F08C300CA01C901C8010A30C70083128E
:1014600010217A088316C2007908C1007808C000EC
:101470007708BF00BD0BAE298312003483163908EC
:10148000F80138020318472A3808F700532AF701F1
:101490000830BA00B80DF70D390877020318F700C5
:1014A000F80DBA0B4A2A83120034780883163608DE
:1014B000B8006430B90083123E2277088316B60064
:1014C00078083030031D6B2AB71C752AB719752AA6
:1014D000371A20306E2AB71137123714F8077808F8
:1014E00083120C1E712A990083163608B8000A3040
:1014F000B90083123E2277088316B6007808303090
:10150000031D882AB7198F2A371C8F2A371A2030D3
:10151000F807780883120C1E8B2A99008316303046
:10152000B607360883120C1E932A990000348401F2
:1015300083131F308305813083169900A6309800ED
:1015400090308312980083161F149F141F159F114B
:1015500007309C008312A901AA01FF30FE00831608
:101560000117831203178B15831603138C160113AF
:10157000B5308312900083160C140B3083128F0049
:10158000DC308E000B16C0308B04B001AF01DA01E5
:10159000D901D801D701D601D501D401D301CA019F
:1015A000C901C801C701C601C501C401C301CE01FB
:1015B000CD01CC01CB01D201D101D001CF01EE018F
:1015C000ED01EC01EB01FF30831685008600C03091
:1015D0008700FE00003088003230B6008312002001
:1015E00083161F1383121F179F1783169F178312CB
:1015F0001F1483161F109F141F159F150030F8002D
:1016000083121F08C73978049F00073083169C0097
:1016100005081030F700F70B0B2B00001C08831295
:101620000D1383169D013230B600831200203D2039
:1016300032308316B600831200203D2032308316EC
:10164000B600831200200030061A01308316B20063
:1016500000308312861A01308316B30000308312E3
:10166000061B01308316B40000308312861B013044
:101670008316B500213083120C1E3C2B99000330D9
:1016800084005A088316B900831259088316B800DB
:10169000831258088316B700831257088316B600C2
:1016A000BA01831254217C300C1E542B99008930CE
:1016B000840072088316B9007108B8007008B7007A
:1016C00083126F088316B6000330BA0083125421C8
:1016D0007C300C1E692B990037088316B6001B302E
:1016E000B700831255227C300C1E742B99000330F6
:1016F00084005E088316B90083125D088316B80063
:1017000083125C088316B70083125B088316B60049
:10171000BA01831254217C300C1E8C2B99000330AB
:10172000840056088316B900831255088316B80042
:10173000831254088316B700831253088316B60029
:10174000BA01831254217C300C1EA42B99008316FD
:101750003208B6001B30B700831255227C300C1EB5
:10176000AF2B990083163308B6001B30B7008312E5
:1017700055227C300C1EBA2B990083163408B60013
:101780001B30B700831255227C300C1EC52B9900EC
:1017900083163508B6001B30B7008312552240303F
:0A17A0000C1ED02B9900172B6300DC
:02400E003A3F37
:00000001FF
;PIC16F877A
